{
  "contractName": "VGData",
  "abi": [
    {
      "constant": true,
      "inputs": [
        {
          "name": "",
          "type": "uint256"
        }
      ],
      "name": "datablocks",
      "outputs": [
        {
          "name": "id",
          "type": "uint256"
        },
        {
          "name": "email",
          "type": "string"
        },
        {
          "name": "gameid",
          "type": "string"
        },
        {
          "name": "key",
          "type": "string"
        },
        {
          "name": "transferable",
          "type": "bool"
        }
      ],
      "payable": false,
      "stateMutability": "view",
      "type": "function",
      "signature": "0x4fabaa2e"
    },
    {
      "constant": true,
      "inputs": [],
      "name": "dataCount",
      "outputs": [
        {
          "name": "",
          "type": "uint256"
        }
      ],
      "payable": false,
      "stateMutability": "view",
      "type": "function",
      "signature": "0x5da40c47"
    },
    {
      "inputs": [],
      "payable": false,
      "stateMutability": "nonpayable",
      "type": "constructor",
      "signature": "constructor"
    },
    {
      "constant": false,
      "inputs": [
        {
          "name": "email",
          "type": "string"
        },
        {
          "name": "gameid",
          "type": "string"
        },
        {
          "name": "key",
          "type": "string"
        },
        {
          "name": "transferable",
          "type": "bool"
        }
      ],
      "name": "createLicence",
      "outputs": [],
      "payable": false,
      "stateMutability": "nonpayable",
      "type": "function",
      "signature": "0xcdcb623f"
    },
    {
      "constant": false,
      "inputs": [
        {
          "name": "id",
          "type": "uint256"
        },
        {
          "name": "newemail",
          "type": "string"
        }
      ],
      "name": "transferlicence",
      "outputs": [],
      "payable": false,
      "stateMutability": "nonpayable",
      "type": "function",
      "signature": "0x5cd87f45"
    }
  ],
  "bytecode": "0x60806040526000805534801561001457600080fd5b506100d06040805190810160405280601381526020017f7573657231323340686f746d61696c2e636f6d000000000000000000000000008152506040805190810160405280601481526020017f456c646572205363726f6c6c73204f6e6c696e650000000000000000000000008152506040805190810160405280600981526020017f425836333947384f5700000000000000000000000000000000000000000000008152506000610190640100000000026401000000009004565b61018b6040805190810160405280601381526020017f7573657234353640686f746d61696c2e636f6d000000000000000000000000008152506040805190810160405280600e81526020017f416765206f6620456d70697265730000000000000000000000000000000000008152506040805190810160405280600a81526020017f37515744474d58544550000000000000000000000000000000000000000000008152506000610190640100000000026401000000009004565b6102e1565b6000805460019081018083556040805160a08101825282815260208082018a81528284018a905260608301899052871515608084015293865284815291909420845181559151805192936101ec93908501929190910190610246565b5060408201518051610208916002840191602090910190610246565b5060608201518051610224916003840191602090910190610246565b50608091909101516004909101805460ff191691151591909117905550505050565b828054600181600116156101000203166002900490600052602060002090601f016020900481019282601f1061028757805160ff19168380011785556102b4565b828001600101855582156102b4579182015b828111156102b4578251825591602001919060010190610299565b506102c09291506102c4565b5090565b6102de91905b808211156102c057600081556001016102ca565b90565b61080a806102f06000396000f3fe6080604052600436106100615763ffffffff7c01000000000000000000000000000000000000000000000000000000006000350416634fabaa2e81146100665780635cd87f45146101e65780635da40c47146102a2578063cdcb623f146102c9575b600080fd5b34801561007257600080fd5b506100906004803603602081101561008957600080fd5b503561048c565b6040518086815260200180602001806020018060200185151515158152602001848103845288818151815260200191508051906020019080838360005b838110156100e55781810151838201526020016100cd565b50505050905090810190601f1680156101125780820380516001836020036101000a031916815260200191505b50848103835287518152875160209182019189019080838360005b8381101561014557818101518382015260200161012d565b50505050905090810190601f1680156101725780820380516001836020036101000a031916815260200191505b50848103825286518152865160209182019188019080838360005b838110156101a557818101518382015260200161018d565b50505050905090810190601f1680156101d25780820380516001836020036101000a031916815260200191505b509850505050505050505060405180910390f35b3480156101f257600080fd5b506102a06004803603604081101561020957600080fd5b8135919081019060408101602082013564010000000081111561022b57600080fd5b82018360208201111561023d57600080fd5b8035906020019184600183028401116401000000008311171561025f57600080fd5b91908080601f01602080910402602001604051908101604052809392919081815260200183838082843760009201919091525092955061065d945050505050565b005b3480156102ae57600080fd5b506102b7610687565b60408051918252519081900360200190f35b3480156102d557600080fd5b506102a0600480360360808110156102ec57600080fd5b81019060208101813564010000000081111561030757600080fd5b82018360208201111561031957600080fd5b8035906020019184600183028401116401000000008311171561033b57600080fd5b91908080601f016020809104026020016040519081016040528093929190818152602001838380828437600092019190915250929594936020810193503591505064010000000081111561038e57600080fd5b8201836020820111156103a057600080fd5b803590602001918460018302840111640100000000831117156103c257600080fd5b91908080601f016020809104026020016040519081016040528093929190818152602001838380828437600092019190915250929594936020810193503591505064010000000081111561041557600080fd5b82018360208201111561042757600080fd5b8035906020019184600183028401116401000000008311171561044957600080fd5b91908080601f016020809104026020016040519081016040528093929190818152602001838380828437600092019190915250929550505050351515905061068d565b600160208181526000928352604092839020805481840180548651600296821615610100026000190190911695909504601f810185900485028601850190965285855290949193929091908301828280156105285780601f106104fd57610100808354040283529160200191610528565b820191906000526020600020905b81548152906001019060200180831161050b57829003601f168201915b50505060028085018054604080516020601f60001961010060018716150201909416959095049283018590048502810185019091528181529596959450909250908301828280156105ba5780601f1061058f576101008083540402835291602001916105ba565b820191906000526020600020905b81548152906001019060200180831161059d57829003601f168201915b5050505060038301805460408051602060026001851615610100026000190190941693909304601f810184900484028201840190925281815294959493509083018282801561064a5780601f1061061f5761010080835404028352916020019161064a565b820191906000526020600020905b81548152906001019060200180831161062d57829003601f168201915b5050506004909301549192505060ff1685565b6000828152600160208181526040909220835161068293919092019190840190610743565b505050565b60005481565b6000805460019081018083556040805160a08101825282815260208082018a81528284018a905260608301899052871515608084015293865284815291909420845181559151805192936106e993908501929190910190610743565b5060408201518051610705916002840191602090910190610743565b5060608201518051610721916003840191602090910190610743565b50608091909101516004909101805460ff191691151591909117905550505050565b828054600181600116156101000203166002900490600052602060002090601f016020900481019282601f1061078457805160ff19168380011785556107b1565b828001600101855582156107b1579182015b828111156107b1578251825591602001919060010190610796565b506107bd9291506107c1565b5090565b6107db91905b808211156107bd57600081556001016107c7565b9056fea165627a7a72305820960e379e9c8eeabf98bb79ef55aeca409f5fe03b7c5f7434e5bde49a387ea80e0029",
  "source": "pragma solidity ^0.5.0;\r\n\r\ncontract VGData{\r\n  uint public dataCount=0;\r\n  struct Datablock{\r\n    uint id;\r\n    string email;\r\n    string gameid;\r\n    string key;\r\n    bool transferable;\r\n  }\r\n\r\n  mapping(uint=>Datablock) public datablocks;\r\n\r\n  constructor() public{\r\n\r\n    // createLicence(\"user123@hotmail.com\",\"Grand Theft Auto\",\"NJZFRYOW9Q\",true);\r\n    createLicence(\"user123@hotmail.com\",\"Elder Scrolls Online\",\"BX639G8OW\",false);\r\n    //\r\n    createLicence(\"user456@hotmail.com\",\"Age of Empires\",\"7QWDGMXTEP\",false);\r\n    // createLicence(\"user456@hotmail.com\",\"Warframe\",\"Q8FE39G67B\",false);\r\n    // createLicence(\"user456@hotmail.com\",\"FIFA\",\"DJ6ADY72QL\",true);\r\n\r\n\r\n  }\r\n\r\n  function createLicence(string memory email,string memory gameid,string memory key,bool transferable) public{\r\n    dataCount++;\r\n    datablocks[dataCount]=Datablock(dataCount,email,gameid,key,transferable);\r\n  }\r\n\r\n  function transferlicence(uint id, string memory newemail) public{\r\n    datablocks[id].email = newemail;\r\n  }\r\n\r\n}\r\n",
  "sourcePath": "C:/Users/nihar/OneDrive/Documents/GitHub/VGBlock/contracts/VGData.sol",
  "compiler": {
    "name": "solc",
    "version": "0.5.0+commit.1d4f565a.Emscripten.clang"
  },
  "schemaVersion": "3.0.1",
  "updatedAt": "2022-12-16T16:07:08.586Z",
  "devdoc": {
    "methods": {}
  },
  "userdoc": {
    "methods": {}
  }
}